:1000000065C0ACC07EC07DC07CC07BC07AC079C0FA
:1000100078C077C076C075C074C073C072C0050167
:100020000906A101050719E029E715002501750159
:1000300095088102950175088103950575010508EC
:10004000190129059102950175039103950675081B
:10005000150025650507190029658100C0040309FD
:1000600004180366006C006900700077006F00726E
:10007000006B002E006E006C001E0334002D004B40
:1000800000650079002D004B006500790062006F6B
:10009000006100720064001201100100000008C03D
:1000A00016DB270001010200010902220001010004
:1000B000801909040000010300000009210101006A
:1000C00001223F000705810308000A0011241FBE1A
:1000D000CFE5D2E0DEBFCDBF10E0A0E6B0E0ECE0BF
:1000E000F1E102C005900D92A836B107D9F720E0E2
:1000F000A8E6B0E001C01D92A03BB207E1F701D332
:1001000003C87ECFA82FB92F80E090E041E050EAED
:10011000609530E009C02D9182279795879510F062
:1001200084279527305EC8F36F5FA8F30895EADF50
:100130008D939D930895A6E088279927AA9569F045
:100140000197E1F3B099FCCFB09BFECF81E09927F6
:10015000A6B3019611F0A570D9F70895CF93CFB744
:10016000CF93C395B09BE9F7B09B09C0B09B07C084
:10017000B09B05C0B09B03C0B09B01C0A3C0DF9380
:10018000C0919300DD27C656DF4FB09B02C0DF91C0
:10019000EBCF2F930F931F9306B32FEF00FB20F9A4
:1001A0004F933F9316B34FEF012700FB21F93BE03C
:1001B00031C04E7F012F16B3216028C0102F4D7F14
:1001C0002260000006B329C04B7F2460012F00008D
:1001D00016B32BC016B3477F28602AC04F7E06B3E4
:1001E00020612CC04F7D16B320622FC04F7B06B319
:1001F000206432C0422706B349934FEF0000102716
:1002000010FB20F916B31570C9F1297F91F201276F
:1002100000FB21F906B3237F89F2315058F11027F2
:1002200010FB22F916B3277E79F2012700FB23F990
:100230002F7C81F206B3102710FB24F92F7971F27D
:1002400000C016B3012700FB25F92F7359F200C037
:1002500006B3102710FB26F9223040F200C016B377
:10026000012700FB27F9243028F64F77206816B3C2
:100270000000F9CF10E41ABF002719C03B50319598
:10028000C31BD04010E41ABF0881033CF9F00B34C3
:10029000E9F0209191001981110F1213EDCF4A81DD
:1002A000441F093641F10D3211F0013E29F7009348
:1002B00098003F914F911F910F912F91DF91CAB7F5
:1002C000C6FD4FCFCF91CFBFCF9118952091980009
:1002D000222379F310919600112369F534306AF1E5
:1002E0003093960020939200109193003BE0311BD5
:1002F0003093930022C0009196000130E4F40AE5A7
:100300004F7049F43091650034FD19C000936500C9
:10031000CAE7D0E018C03091850034FD10C00093CA
:100320008500C6E8D0E00FC02795A8F45150A9F485
:10033000220F0000F9CF4AE503C042ED01C0432F70
:10034000C4E1D0E032E017B31560C09A17BB08B320
:1003500020E415E05F93012756E008BB279520F4C1
:10036000515021F4220FF9CF012756E000003B5AEB
:1003700008BBD0F2279528F4515029F4220F000031
:10038000F9CF012756E0279508BB20F4515021F4FE
:10039000220FF9CF012756E02991332308BB21F61C
:1003A0000A7F10919700110FC651D04008BB11F081
:1003B0001093910010E41ABF016017B31A7F402F09
:1003C0004A7F5F9100C000C008BB17BB48BB71CF1C
:1003D000CF93DF93CDB7DEB788E590E0FC01808155
:1003E000882F90E0847099270097E1F088E590E0ED
:1003F00024E0FC01208380917600909177000196A3
:1004000090937700809376008091760090917700AA
:100410008530910538F0109277001092760081E0D7
:1004200080936400DF91CF910895CF93DF931F9263
:10043000CDB7DEB7809171008823D1F4809175002B
:10044000813069F480916300882311F0198202C021
:100450008AE2898310927500898180936D001092E1
:100460006A0010926B0010926C0081E08093710022
:100470000F90DF91CF910895CF93DF9300D000D0FC
:10048000CDB7DEB786E390E0FC018081827089837E
:1004900086E390E0FC01808180718A8386E390E0AE
:1004A000FC01808180728B8386E390E0FC01808177
:1004B00088708C83809160009981981751F08981B0
:1004C00080936000109264001092710081E080932C
:1004D0007200809161009A81981751F08A8180930F
:1004E0006100109264001092710081E080937300AB
:1004F000809162009B81981751F08B8180936200FC
:10050000109264001092710081E0809374008091D9
:1005100063009C81981751F08C8180936300109246
:1005200064001092710081E0809375000F900F902D
:100530000F900F90DF91CF910895CF93DF93CDB7B8
:10054000DEB780E590E02BE0FC012083DF91CF91C6
:100550000895CF93DF9300D000D0CDB7DEB79C8352
:100560008B838B819C819A83898388E690E090932A
:1005700095008093940089819A81FC018081882F65
:1005800090E0807699278032910519F589819A81CA
:10059000FC018181813019F448DF88E01BC089812A
:1005A0009A81FC018181823041F480E790E0909350
:1005B00095008093940081E00DC089819A81FC01AF
:1005C00081818A3031F489819A81FC018381809311
:1005D000700080E00F900F900F900F90DF91CF91FF
:1005E0000895CF93DF93CDB7DEB729970FB6F89470
:1005F000DEBF0FBECDBF80E889831A8281EB96E013
:100600009987888781E590E03A812981230FFC0151
:10061000208391DD9D838C832C813D818885998504
:100620002817390724F49A818981890F8A8389815F
:10063000869589838981882329F78A818B838C8198
:100640009D819F838E8381E590E02A812150FC016A
:1006500020832CC070DD9C0188859985A901481BE9
:10066000590BCA019D838C838C819D8199233CF415
:100670008C819D819195819591099D838C832C819D
:100680003D818E819F81281739074CF48C819D8193
:100690009F838E8381E590E0FC0180818B8381E5DF
:1006A00090E0FC0120812F5FFC01208381E590E038
:1006B000FC018081282F30E08A81882F90E001960C
:1006C000821793073CF681E590E02B81FC012083A3
:1006D00029960FB6F894DEBF0FBECDBFDF91CF9144
:1006E0000895CF93DF93CDB7DEB77BDF81E590E050
:1006F000FC018081682F80E090E0F8D4DF91CF91F9
:100700000895CF93DF93CDB7DEB760970FB6F89417
:10071000DEBF0FBECDBF8CE390E0FC018081882F4F
:1007200090E0827099270097B1F780E090E0D6D4EE
:100730008A838A818F3F29F081E590E02A81FC013C
:1007400020839BD387E390E027E330E0F901208109
:100750002160FC01208319826DC0A89580E090E0A3
:10076000A0E8BFE38B839C83AD83BE8320E030E8A9
:100770004BE355E46B817C818D819E811CD4DC012F
:10078000CB018F839887A987BA8720E030E040E8C3
:100790005FE36F81788589859A858CD388232CF4D3
:1007A00081E090E09C878B873BC020E03FEF4FE7E4
:1007B00057E46F81788589859A85F9D318163CF5B9
:1007C00020E030E040E251E46B817C818D819E81AC
:1007D000F2D3DC01CB01BC01CD0170D3DC01CB0134
:1007E0009C878B870FC08CE291E09E878D878D85DB
:1007F0009E850197F1F79E878D878B859C85019754
:100800009C878B878B859C85009769F713C06F81C8
:10081000788589859A8552D3DC01CB019C878B87AB
:100820008B859C85988B8F878F8598890197F1F7A9
:10083000988B8F878981815089838981882309F0EA
:100840008CCF87E390E027E330E0F90120812E7F11
:10085000FC01208388E190E02FE00FB6F894A89582
:1008600081BD0FBE21BD88E390E028E330E0F901AF
:1008700020812260FC01208388E390E028E330E0BF
:10088000F90120812061FC01208388E390E028E3C6
:1008900030E0F90120812062FC01208388E390E0B0
:1008A00028E330E0F90120812860FC01208345DE47
:1008B0007894A89597D280916400813009F4DCDDAA
:1008C00080918500882F90E080719927009749F0EA
:1008D00080917100882329F4A8DD68E088E690E023
:1008E00071D076DDE6CFCF93DF93CDB7DEB78BE463
:1008F00080938600DF91CF910895CF93DF93CDB79A
:10090000DEB7DF91CF910895CF93DF93CDB7DEB7F8
:1009100028970FB6F894DEBF0FBECDBF9D838C83A2
:100920006E8358874F838F819885FC018081882F43
:1009300090E080719927009761F08F819885FC0184
:10094000918188E8292F28278F819885FC012183B0
:1009500005C08F8198852AE5FC0120838F819885C9
:1009600002969A8389838E818B8389819A819C01E7
:100970002F5F3F4F3A8329832C813D81A9014F5F2F
:100980005F4F5D834C83F9012081FC0120838B81C3
:1009900081508B838B81882341F78F8198850296C4
:1009A0006E81C5DB8E8124E0280F8F819885FC0144
:1009B000208328960FB6F894DEBF0FBECDBFDF911F
:1009C000CF910895CF93DF9300D01F92CDB7DEB7BC
:1009D0009A8389836B8389819A8145E850E06B8192
:1009E00093DF0F900F900F90DF91CF910895CF93E9
:1009F000DF9300D000D000D0CDB7DEB79E838D83CB
:100A0000198280E48A838D819E81FC0183818B839E
:100A10008B81813049F482E1898387E990E090936A
:100A20009500809394004FC08B81823049F482E21C
:100A3000898389EA90E0909395008093940043C065
:100A40008B81833049F58D819E81FC0182818C836D
:100A50008C81882349F484E089838DE590E090932C
:100A600095008093940017C08C81813049F488E10F
:100A7000898381E690E090939500809394000BC069
:100A80008C81823041F48EE1898389E790E09093F4
:100A900095008093940017C08B81813249F489E0DE
:100AA00089838BEB90E090939500809394000BC02A
:100AB0008B81823241F48FE389838EE190E09093C1
:100AC0009500809394008A8180937800898126968E
:100AD0000FB6F894DEBF0FBECDBFDF91CF91089562
:100AE000CF93DF93CDB7DEB728970FB6F894DEBF6C
:100AF0000FBECDBF98878F83198283E890E09B83D8
:100B00008A838F819885FC0182818C838A819B8175
:100B1000FC0110828F819885FC0181818D838D81FC
:100B2000882371F48F819885FC0180818F718E8379
:100B30008A819B810196FC01108282E089832CC00E
:100B40008D81853021F48C818093970025C08D8123
:100B5000863029F48F8198854ADF898323C08D816F
:100B6000883039F489E990E09B838A8381E0898326
:100B700013C08D81893029F48C8180939900BDDE6A
:100B80000BC08D818A3019F481E0898305C08D8185
:100B90008B3011F4A8DEB1DE8A819B8190939500A1
:100BA00080939400898128960FB6F894DEBF0FBE1B
:100BB000CDBFDF91CF910895CF93DF93CDB7DEB74F
:100BC00027970FB6F894DEBF0FBECDBF9E838D83EF
:100BD0006F838D819E819B838A83809192008D3269
:100BE00099F58F81883009F02FC083EC80937A00CB
:100BF0008AE580936500109278008A819B81FC01D0
:100C0000808180768C838C81882329F08D819E81E0
:100C1000A0DC898304C08A819B8162DF89838A8109
:100C20009B81FC018781882361F48A819B81FC017F
:100C300096818981981728F48A819B81FC0186819D
:100C4000898389818093660027960FB6F894DEBF6A
:100C50000FBECDBFDF91CF910895CF93DF93CDB776
:100C6000DEB72A970FB6F894DEBF0FBECDBF9987C7
:100C700088876A878A85882309F44FC08A85898393
:100C800080919400909195009B838A838091780055
:100C9000882F90E080749927009709F18A819B81C1
:100CA0009D838C838C819D81FC0184918E838E81B8
:100CB0008F83888599859C012F5F3F4F39872887CF
:100CC0002F81FC0120838A819B8101969B838A83EB
:100CD0008981815089838981882301F718C088859B
:100CE00099859C012F5F3F4F398728872A813B8157
:100CF000F9012081FC0120838A819B8101969B83DD
:100D00008A838981815089838981882341F78A81F7
:100D10009B8190939500809394008A852A960FB6C4
:100D2000F894DEBF0FBECDBFDF91CF910895CF9372
:100D3000DF9300D0CDB7DEB78091660089838981CB
:100D4000893010F088E08983909166008981292F8D
:100D5000281B822F8093660090917A0088E889276B
:100D600080937A0069818BE790E077DF8A838A81BC
:100D7000893070F48BE790E06A81D9D98A818C5FE1
:100D80008A838A818C3048F48FEF8093660005C097
:100D90008EE18A838FEF809366008A81809365005D
:100DA0000F900F90DF91CF910895CF93DF9300D0F4
:100DB000CDB7DEB78A8381E09A81992309F080E07C
:100DC0008983909179008981981739F089818823E6
:100DD00009F487DC8981809379000F900F90DF916F
:100DE000CF910895CF93DF9300D01F92CDB7DEB798
:100DF0008091960083508A838A8188238CF04A816F
:100E000080919300882F90E02CE030E0B901681BBE
:100E1000790BCB0186569F4F642FCEDE1092960041
:100E200080916500882F90E080719927009729F0C4
:100E3000809166008F3F09F07ADF84E189830DC0DD
:100E400086E390E0FC01808185708B838B81882311
:100E500009F00BC08981815089838981882381F7BA
:100E6000109297001092910048DD89819EDF0F90CB
:100E70000F900F90DF91CF910895CF93DF93CDB76F
:100E8000DEB785E590E025E530E0F90120812260BC
:100E9000FC0120838BE590E02BE530E0F901208117
:100EA0002064FC0120831FDD8AE580938500DF91AB
:100EB000CF9108952FD008F481E0089557D088F09D
:100EC0009F5790F0B92F9927B751A0F0D1F0660F36
:100ED000771F881F991F1AF0BA95C9F712C0B13051
:100EE00081F05ED0B1E008955BC0672F782F88272E
:100EF000B85F39F0B93FCCF3869577956795B39590
:100F0000D9F73EF490958095709561957F4F8F4FFE
:100F10009F4F0895990F0008550FAA0BE0E8FEEFC8
:100F200016161706E807F907C0F012161306E407AD
:100F3000F50798F0621B730B840B950B39F40A26A6
:100F400061F0232B242B252B21F408950A2609F484
:100F5000A140A6958FEF811D811D089557FD9058E2
:100F6000440F551F59F05F3F71F04795880F97FB6D
:100F7000991F61F09F3F79F0879508951216130627
:100F80001406551FF2CF4695F1DF08C01616170656
:100F90001806991FF1CF869571056105089408958B
:100FA000E894BB2766277727CB0197F90895B2DF2E
:100FB00008F48FEF08950AD080C071D028F076D061
:100FC00018F0952309F062C067C0EBCFC7DFA8F324
:100FD0009923D9F35523C9F3950F50E0551FAA273C
:100FE000EE27FF27BB2700240894679520F4E20F23
:100FF000F31FB41F0A1E220F331F441FAA1F66953A
:10100000A9F7779530F4F30FB41F0A1E121E08F4E7
:101010006395330F441FAA1F221F769599F7879572
:1010200020F4B40F0A1E121E631F440FAA1F221FB2
:10103000331F8695A9F7862F712D602D11249F5798
:1010400050408AF0E1F088234AF0EE0FFF1FBB1FEB
:10105000661F771F881F91505040A9F79E3F51058A
:1010600070F014C09ECF5F3FECF3983EDCF38695A2
:1010700077956795B795F795E7959F5FC1F7FE2B35
:10108000880F911D9695879597F9089597F99F6711
:1010900080E870E060E008959FEF80EC0895002400
:1010A0000A941616170618060906089500240A94CD
:1010B00012161306140605060895092E0394000C53
:1010C00011F4882352F0BB0F40F4BF2B11F460FFE2
:1010D00004C06F5F7F4F8F4F9F4F0895E199FECF00
:1010E0009FBB8EBBE09A99278DB30895262FE19977
:1010F000FECF1CBA9FBB8EBB2DBB0FB6F894E29AF5
:0C110000E19A0FBE01960895F894FFCF0D
:08110C0003030303015AFF0075
:00000001FF
