S01600004261636B7370616365506564616C2E73726563AB
S113000065C0ACC07EC07DC07CC07BC07AC079C0F6
S113001078C077C076C075C074C073C072C0050163
S11300200906A101050719E029E715002501750155
S113003095088102950175088103950575010508E8
S11300401901290591029501750391039506750817
S1130050150025650507190029658100C0090222DC
S113006000010100801909040000010300000009D7
S11300702101010001223F000705810308000A1243
S113008001100100000008C016DB27000101020076
S1130090011E0334002D004B00650079002D004B38
S11300A0006500790062006F00610072006400184E
S11300B00366006C006900700077006F0072006BCB
S11300C0002E006E006C00040309040011241FBEFE
S11300D0CFE5D2E0DEBFCDBF10E0A0E6B0E0ECE0BB
S11300E0F9E002C005900D92A836B107D9F720E0D7
S11300F0A8E6B0E001C01D92A03BB207E1F7F9D138
S113010003C47ECFA82FB92F80E090E041E050EAED
S1130110609530E009C02D9182279795879510F05E
S113012084279527305EC8F36F5FA8F30895EADF4C
S11301308D939D930895A6E088279927AA9569F041
S11301400197E1F3B099FCCFB09BFECF81E09927F2
S1130150A6B3019611F0A570D9F70895CF93CFB740
S1130160CF93C395B09BE9F7B09B09C0B09B07C080
S1130170B09B05C0B09B03C0B09B01C0A3C0DF937C
S1130180C0919300DD27C656DF4FB09B02C0DF91BC
S1130190EBCF2F930F931F9306B32FEF00FB20F9A0
S11301A04F933F9316B34FEF012700FB21F93BE038
S11301B031C04E7F012F16B3216028C0102F4D7F10
S11301C02260000006B329C04B7F2460012F000089
S11301D016B32BC016B3477F28602AC04F7E06B3E0
S11301E020612CC04F7D16B320622FC04F7B06B315
S11301F0206432C0422706B349934FEF0000102712
S113020010FB20F916B31570C9F1297F91F201276B
S113021000FB21F906B3237F89F2315058F11027EE
S113022010FB22F916B3277E79F2012700FB23F98C
S11302302F7C81F206B3102710FB24F92F7971F279
S113024000C016B3012700FB25F92F7359F200C033
S113025006B3102710FB26F9223040F200C016B373
S1130260012700FB27F9243028F64F77206816B3BE
S11302700000F9CF10E41ABF002719C03B50319594
S1130280C31BD04010E41ABF0881033CF9F00B34BF
S1130290E9F0209191001981110F1213EDCF4A81D9
S11302A0441F093641F10D3211F0013E29F7009344
S11302B098003F914F911F910F912F91DF91CAB7F1
S11302C0C6FD4FCFCF91CFBFCF9118952091980005
S11302D0222379F310919600112369F534306AF1E1
S11302E03093960020939200109193003BE0311BD1
S11302F03093930022C0009196000130E4F40AE5A3
S11303004F7049F43091660034FD19C000936600C3
S1130310CAE7D0E018C03091850034FD10C00093C6
S11303208500C6E8D0E00FC02795A8F45150A9F481
S1130330220F0000F9CF4AE503C042ED01C0432F6C
S1130340C4E1D0E032E017B31560C09A17BB08B31C
S113035020E415E05F93012756E008BB279520F4BD
S1130360515021F4220FF9CF012756E000003B5AE7
S113037008BBD0F2279528F4515029F4220F00002D
S1130380F9CF012756E0279508BB20F4515021F4FA
S1130390220FF9CF012756E02991332308BB21F618
S11303A00A7F10919700110FC651D04008BB11F07D
S11303B01093910010E41ABF016017B31A7F402F05
S11303C04A7F5F9100C000C008BB17BB48BB71CF18
S11303D080916E00811118C080916A00813059F4B7
S11303E080916100882311F080E001C08AE21092BC
S11303F06A0080937500109272001092730010923C
S1130400740081E080936E00089520E730E030931B
S1130410950020939400FC01208120762032C1F4C1
S11304202181213019F4D4DF88E00895223041F489
S11304308FE690E0909395008093940081E0089576
S11304402A3041F4FC01838180936F0080E0089599
S113045080E0089580E00895DF92EF92FF920F9379
S11304601F93CF93DF9308E010E0E12C6894FF24FE
S1130470F7F8DF2CDE0CD1BE5EDEEC01C13B86E07A
S1130480D8070CF4ED2CF69401501109011511054F
S113049081F78FEF8E0D81BF81B70E2D10E00F5FB6
S11304A01F4F90E008171907BCF045DE815B9640AA
S11304B09C01992324F422273327281B390B2C175A
S11304C03D0714F4E1B6E90181B78F5F81BF81B7BD
S11304D090E0081719074CF7E1BE61B780E090E09F
S11304E005D2DF91CF911F910F91FF90EF90DF9094
S11304F00895E199FECF80E090E0F0D18F3F09F4B8
S113050083C081BF81C0A895E7EBFBE03197F1F789
S113051000C000008150B9F7B8982FE088E190E05E
S11305200FB6F894A89581BD0FBE21BDC19AC49A97
S1130530C59AC39A8BE080BF7894C5E8D0E0FF24C5
S1130540F39414E00F2DA89585D08091600081303C
S1130550C1F536B3327026B3207196B3907286B368
S1130560887040916400341741F030936400109215
S1130570600010926E0000936D00309163002317A9
S113058041F0209363001092600010926E0000937B
S11305906C0020916200921741F0909362001092D7
S11305A0600010926E0000936B00909161008917B7
S11305B041F0809361001092600010926E000093ED
S11305C06A00888184FF09C080916E00811105C092
S11305D0FFDE68E080E790E01BD008B602FEB3CFF0
S11305E018BF80916800909169000196909369000A
S11305F080936800059708F4A6CF109269001092C2
S11306006800F09260009FCF5CD1B89A8FEF7BCFE7
S1130610CF93C62F2091850024FF07C0E6E8F0E0C1
S1130620308128E82327208303C02AE5209385000E
S1130630E82FF92FA7E8B0E08C2F91919D9381507A
S1130640E1F76C2F87E890E072DDCC5FC093850002
S1130650CF910895CF93DF938091960083500AF44D
S1130660B4C020919300909192009D3209F0ABC0E8
S1130670883009F0A8C0CCE0D0E0C21BD109C6562E
S1130680DF4F83EC80937A008AE5809366001092B2
S113069079008881807619F0CE01B7DE8BC09A810B
S11306A0109283008981811106C01092840023E88E
S11306B030E082E07BC0853031F49093970023E8EA
S11306C030E080E073C0863009F050C08B81813007
S11306D041F48FE790E0909395008093940082E139
S11306E041C0823041F48DE590E090939500809371
S11306F0940082E237C08330F1F4911108C087EC92
S113070090E0909395008093940084E02BC0913006
S113071041F48FEA90E0909395008093940088E1EF
S113072021C09230E1F481E990E0909395008093A8
S113073094008EE117C0813241F48FE690E09093EB
S113074095008093940089E00DC0823251F48EE1CB
S113075090E090939500809394008FE303C080E031
S113076001C080E090E49093790024C0883099F02F
S1130770893031F49093990023E830E080E016C08A
S11307808A3069F08B3079F48BE48093860023E817
S113079030E080E00BC029E930E081E007C023E8C5
S11307A030E081E003C023E830E080E0309395003E
S11307B0209394009F81911104C09E81981708F49E
S11307C0892F80936500109296008091660084FFC3
S11307D04DC0809165008F3F09F448C0C82F89300F
S11307E008F0C8E08C1B80936500EAE7F0E0908194
S11307F088E889278083CC2309F45AC08091940027
S1130800909195002091790026FF11C0ABE7B0E0EC
S1130810FC012C2F34913D9331962150D9F72FEFC1
S11308202C0F30E02F5F3F4F820F931F0FC0DC016E
S1130830EBE7F0E02C2F3D9131932150E1F72FEFBE
S11308402C0F30E02F5F3F4F820F931F9093950042
S1130850809394006C2F8BE790E069DCCC5FCC3004
S113086018F48FEF80936500C093660086B385709B
S1130870B1F483E196B3957099F48150D9F710924D
S1130880970010929100C1E08111C0E0809178003E
S1130890C81302C013C0E0DDC09378000FC084E128
S11308A0C1E08111C0E080917800C813F4CF06C084
S11308B06C2F8BE790E03BDCCC5FD3CFDF91CF9103
S11308C0089585B7826085BF8BB780648BBF8BE446
S11308D0809386008AE5809385000895E199FECF90
S11308E09FBB8EBBE09A99278DB30895262FE1997B
S11308F0FECF1CBA9FBB8EBB2DBB0FB6F894E29AF9
S10F0900E19A0FBE01960895F894FFCF11
S10B090C0103030303FF5A0079
S9030000FC
